:100000005DC100000C94AD0A0C94820A0C94570A4E
:100010000C942C0A0C94010A0C94D6090C94AB098C
:100020000C9480097CC100007AC1000078C10000F6
:1000300076C1000074C1000072C1000070C10000F0
:100040006EC100006CC100006AC1000068C1000000
:1000500066C1000064C1000062C100000C94360952
:100060005EC100000C94020B0C94D80A58C1000029
:1000700056C1000054C1000052C1000050C1000030
:100080004EC100004CC100004AC1000048C1000040
:1000900046C1000044C1000042C1000040C1000050
:1000A0003EC100003CC100003AC1000038C1000060
:1000B00036C1000034C1000032C1000030C1000070
:1000C0002EC100002CC100002AC1000028C1000080
:1000D00026C1000024C1000022C1000020C1000090
:1000E0001EC1000000407A10F35A00A0724E180999
:1000F0000010A5D4E80000E87648170000E40B548F
:10010000020000CA9A3B000000E1F505000080965D
:100110009800000040420F000000A086010000008F
:10012000102700000000E803000000006400000049
:1001300000000A00000000000100000000002C7612
:10014000D888DC674F0823DFC1DFAE59E1B1B7962D
:10015000E5E3E453C63AE651997696E8E6C284268A
:10016000EB898C9B62ED407C6FFCEFBC9C9F40F266
:10017000BAA56FA5F490055A2AF75C936B6CF967E2
:100180006DC11BFCE0E40D47FEF520E6B500D0EDA7
:10019000902E0300943577050080841E080000200F
:1001A0004E0A000000C80C333333330F986E1283AD
:1001B0001141EF8D2114893BE65516CFFEE6DB1881
:1001C000D1844B381BF77C1D901DA4BBE424203246
:1001D00084725E228100C9F124ECA1E53D27000074
:1001E00020002300260029002C002F0032000001EF
:1001F000000003010601090100002200250028007B
:100200002B002E003100340002010000050108011E
:100210000B0100002100240027002A002D003000DF
:10022000330001010000040107010A01050505056D
:10023000070508080808020202020A0A080804045E
:10024000040401010101010101010303030303038C
:100250000303040707070C0C0C0C0C0C0C0C02021B
:10026000020206060606060606060B0B0B0B0B0B18
:100270000B0B0102102020080810204010204080A5
:10028000020102010804020101020408102040805A
:1002900080402010080402018004020180402010E8
:1002A0000804020108040201010204081020408031
:1002B0000102040810204080380B0A0D11241FBED3
:1002C000CFEFD1E2DEBFCDBF00E00CBF26E0A4EE51
:1002D000B2E001C01D92AB36B207E1F712E0A0E038
:1002E000B2E0E0EAF5E200E00BBF02C007900D9239
:1002F000A43EB107D9F711E0CDE5D1E000E006C09A
:1003000021970109802FFE010E949D10CC35D10755
:1003100080E00807A9F70E94AF0B0C94BF1270CEC3
:10032000CF93DF9390E0FC01EE58FD4F2491845D64
:100330009D4FFC0184918823D1F090E0880F991F94
:10034000FC01EE5EFD4FA591B491FC01E850FE4F1B
:10035000C591D491623071F49FB7F8943C91822F8B
:10036000809583238C93E8812E2B28839FBFDF9178
:10037000CF9108958FB7F894EC912E2B2C938FBFCB
:10038000F6CF3FB7F8948091E9029091EA02A091EC
:10039000EB02B091EC0226B5A89B05C02F3F19F0E7
:1003A0000196A11DB11D3FBFBA2FA92F982F8827F5
:1003B000BC01CD01620F711D811D911D42E0660FD0
:1003C000771F881F991F4A95D1F708958F929F92A2
:1003D000AF92BF92CF92DF92EF92FF924B015C01FE
:1003E000D0DF6B017C01CDDF6C197D098E099F097F
:1003F000683E734081059105B0F321E0821A9108AF
:10040000A108B10888EEC80E83E0D81EE11CF11CDB
:1004100081149104A104B10431F7FF90EF90DF90B3
:10042000CF90BF90AF909F908F9008958091880556
:10043000811106C061E070E080E090E0C7DFF6CF98
:1004400080918805882331F061E070E080E090E0E1
:10045000BDDFF6CF0895823061F018F4813031F0BD
:100460000895833049F0843059F0089580938805C9
:10047000089510928805089581E080938905089574
:100480001092890508950895AF92BF92CF92DF929E
:10049000EF92FF920F931F93CF93DF936C017B0139
:1004A0008B01040F151FEB015E01AE18BF08C017CA
:1004B000D10759F06991D601ED91FC910190F0813D
:1004C000E02DC6011995892B79F7C501DF91CF91F0
:1004D0001F910F91FF90EF90DF90CF90BF90AF9062
:1004E0000895FC01538D448D252F30E0842F90E03A
:1004F000821B930B541710F0CF960895019708951F
:10050000FC01918D828D981761F0A28DAE0FBF2FE7
:10051000B11D5D968C91928D9F5F9F73928F90E03D
:1005200008958FEF9FEF0895FC01918D828D9817AC
:1005300031F0828DE80FF11D858D90E008958FEFE9
:100540009FEF0895FC01918D228D892F90E0805CB2
:100550009F4F821B91098F739927089581EC94E036
:10056000F1DF21E0892B09F420E0822F0895FC01BE
:10057000A48DA80FB92FB11DA35ABF4F2C91848D04
:1005800090E001968F739927848FA689B7892C9361
:10059000A089B1898C91837080648C93938D848DB4
:1005A000981306C00288F389E02D80818F7D8083B7
:1005B0000895EF92FF920F931F93CF93DF93EC0177
:1005C00081E0888F9B8D8C8D98131AC0E889F989FA
:1005D000808185FF15C09FB7F894EE89FF896083FD
:1005E000E889F98980818370806480839FBF81E07E
:1005F00090E0DF91CF911F910F91FF90EF900895C0
:10060000F62E0B8D10E00F5F1F4F0F731127E02E9A
:100610008C8D8E110BC00FB607FCFACFE889F989D3
:10062000808185FFF5CFCE01A2DFF2CFEB8DEC0FFD
:10063000FD2FF11DE35AFF4FF0829FB7F8940B8F07
:10064000EA89FB8980818062D0CFCF93DF93EC0170
:10065000888D8823B1F0AA89BB89E889F9898C91B2
:1006600085FD03C0808186FD0CC00FB607FCF7CF67
:100670008C9185FFF2CF808185FFEDCFCE0177DFB2
:10068000EACFDF91CF91089596E0899FF001112480
:10069000E351FD4FA081B1819C9184818095892394
:1006A0008C930895CF93DF93EC01862F6883498361
:1006B0002A8328EC30E03C832B8340E050E060E26A
:1006C00072E44D875E876F87788B2CED35E03E8333
:1006D0002D834AE057ED63EA7BE34F8358876987B0
:1006E0007A8761E01DDE61E089811ADE61E08A813E
:1006F00017DE8A81DF91CF91C7CF089562E082E053
:100700000FDE8DE793E09093010280930002EAE60A
:10071000F0E080818C7F82608083EC9A089580E88D
:1007200095E0ECCFFC011582089521E0FC012583C2
:100730000895FC011482089521E0FC0124830895AA
:10074000CF93DF93EC0126E247E366E30696AADF48
:10075000679628E34DE36CE3CE01A4DF2EE340E38C
:100760006EE2CE019FDF28E14CE16AE1CE01DF912C
:10077000CF9198CF84E895E0E3CFE0915B03F091CF
:100780005C03808190915D03892391E009F090E002
:100790009093D205882331F084E0E091D005F09168
:1007A000D105199483E0F9CF62E082E1B9DD8DEBE8
:1007B00093E090930B0280930A02E9E6F0E08081D7
:1007C0008F7380648083EB9AD8CF8EEC95E0ECCF6A
:1007D000E0910103F091020380819091030389234A
:1007E00091E009F090E09093D705882331F082E002
:1007F000E091D505F091D605199481E0F9CF62E03A
:1008000083E08EDD88EE93E09093030280930202F2
:10081000EAE6F0E08081837F84608083ED9AD8CF20
:1008200083ED95E0ECCF089508958F929F92AF925B
:10083000BF92CF92DF92EF92FF920F931F93CF93CD
:10084000DF934B015C0160918D0570918E05072E41
:10085000000C880B990B0E94860FA50194010E9441
:10086000E50F6B017C0120E030E0A9010E949910A6
:10087000181624F0F7FAF094F7F8F094C0918B056D
:1008800020E030E0A901C501B4010E94800F87FF7C
:100890002DC08C2FF9DED0E0C0E086E0B82E0BE34F
:1008A00016E0BE010D2E000C880B990B0E94860FDE
:1008B000A70196010E94800F87FF25C0E0918A055D
:1008C000BE9EF0011124E351FD4FA081B1818C91B6
:1008D0009481892B8C93C8010197F1F780918A0547
:1008E000D3DEC8010197F1F72196DBCF86E0C89FE0
:1008F000F0011124E351FD4FA081B1818C919481CD
:10090000892B8C93C8CFDF91CF911F910F91FF90CE
:10091000EF90DF90CF90BF90AF909F908F90089511
:10092000FC0101900020E9F73197AF01481B590BFA
:10093000BC0181EC94E0A8CDCF93DF93FC0144810E
:1009400055816081718181EC94E09EDDEC0182E84B
:1009500092E0E6DF8C0F9D1FDF91CF910895FC019F
:1009600024813581232B39F421E0FB018081882308
:1009700049F020E007C0808191810E94AF1221E000
:10098000892BB9F7822F08950F931F93CF93DF938D
:10099000EC0188819981009759F02A813B812617C3
:1009A000370730F081E0DF91CF911F910F910895CB
:1009B0008B016F5F7F4F0E94CA11009759F0998396
:1009C00088831B830A832C813D81232B59F7FC01EB
:1009D0001082E8CF80E0E7CFEF92FF920F931F9352
:1009E000CF93DF936115710541F480E0DF91CF91E2
:1009F0001F910F91FF90EF90089541155105A9F0B7
:100A00007B01EC010C811D81040F151FB801BCDFB7
:100A1000882359F3288139818C819D81B701820F08
:100A2000931F0E94B8121D830C8381E0DFCFFB016E
:100A300001900020E9F73197AF01461B570BCCCF4F
:100A4000FB014481558160817181C6CFCF93DF93D3
:100A5000EC0188819981009711F00E94411119825F
:100A600018821D821C821B821A82DF91CF91089509
:100A7000CF93DF93EC01FB0101900020E9F7319760
:100A8000AF01461B570BA8DF811102C0CE01DEDF8C
:100A9000CE01DF91CF910895CF93DF93EC01FB015D
:100AA000448155816081718197DF811102C0CE013F
:100AB000CDDFCE01DF91CF910895EF92FF920F939A
:100AC0001F93CF93DF93EC017B018A01BA015CDFB6
:100AD00081110AC0CE01BADFCE01DF91CF911F9103
:100AE0000F91FF90EF9008951D830C83B7018881CB
:100AF00099810E94B812F0CFFB0101900020E9F724
:100B00003197AF01461B570BD8CFEF92FF920F934F
:100B10001F93CF93DF93CDB7DEB7A1970FB6F894AD
:100B2000DEBF0FBECDBF7C01CB01BA01F701118240
:100B3000108213821282158214828E010F5F1F4F62
:100B400022E044E070D7009781F0BC01C701D4DFF8
:100B5000A1960FB6F894DEBF0FBECDBFDF91CF9147
:100B60001F910F91FF90EF900895C7016FDFF0CFB5
:100B7000CF93DF93EC01FB018617970741F060816B
:100B800071816115710539F04481558196DFCE017F
:100B9000DF91CF9108955ADFFACFFC0111821082C4
:100BA0001382128215821482E3CFFC01118210821B
:100BB0001382128215821482FB0101900020E9F752
:100BC0003197AF01461B570B78CFFC018081918193
:100BD000009711F00C94411108950F931F93CF9338
:100BE000DF93CDB7DEB7A4970FB6F894DEBF0FBE84
:100BF000CDBF8C0165E872E0D8DF80915E059091F1
:100C00005F058230910509F424C108F012C10097F4
:100C100009F41CC16CE872E0019709F413C1BE012C
:100C2000695F7F4FCE010196B8DF66EA72E0CE01C0
:100C300001961EDFBC01C80103DFCE010196C5DFAE
:100C4000CE010796C2DF64E872E0CE014F96ADDFB9
:100C500040916C0550916D0560916E0570916F0526
:100C6000CE01499652DF4091680550916905609127
:100C70006A0570916B05CE01439647DF409164058C
:100C8000509165056091660570916705CE010D96DE
:100C90003CDF409160055091610560916205709163
:100CA0006305CE01019631DFBE016F5F7F4FCE013C
:100CB000079673DF68EA72E0CE010796D9DEBE01BF
:100CC000635F7F4FE9DE68EA72E0D2DEBE016D5EEF
:100CD0007F4FE2DE68EA72E0CBDEBE01675E7F4FE7
:100CE000DBDEBC01CE014F96ABDECE0107966DDF99
:100CF000CE0101966ADFCE010D9667DFCE014396E5
:100D000064DFCE01499661DF66EA72E0CE014F965C
:100D10008EDE40917C0550917D0560917E0570913D
:100D20007F05CE014996F1DE409178055091790515
:100D300060917A0570917B05CE014396E6DE409185
:100D40007405509175056091760570917705CE0117
:100D50000D96DBDE40917005509171056091720532
:100D600070917305CE010196D0DEBE016F5F7F4F9B
:100D7000CE01079612DF68EA72E0CE01079678DEB0
:100D8000BE01635F7F4F88DE68EA72E071DEBE01FC
:100D90006D5E7F4F81DE68EA72E06ADEBE01675EEB
:100DA0007F4F7ADEBC01CE014F964ADECE01079618
:100DB0000CDFCE01019609DFCE010D9606DFCE01D4
:100DC000439603DFCE01499600DFBE01615E7F4F8F
:100DD000CE010196E2DE66EA72E0CE01019648DEBF
:100DE000BC01C8012DDECE010196EFDECE014F968B
:100DF000ECDE8091D705882321F06AEA72E0C80111
:100E000016DE8091D205882321F06CEA72E0C801D9
:100E10000EDE6EEA72E0C8010ADEC801A4960FB6C3
:100E2000F894DEBF0FBECDBFDF91CF911F910F9120
:100E300008958430910599F078F060EA72E00597A2
:100E400009F0EDCECE010796B0DEE9CE67E872E09C
:100E5000F9CF60E972E0F6CF65E972E0F3CF69E9B6
:100E600072E0F0CF0F931F93CF93DF93CDB7DEB730
:100E7000A1970FB6F894DEBF0FBECDBF8C0164E81A
:100E800072E06DDD81110FC060EB72E0C80167DDBB
:100E90008823A1F0CE010196A0DECE0101964CDDA3
:100EA000CE01019692DEA1960FB6F894DEBF0FBE7A
:100EB000CDBFDF91CF911F910F91089562EB72E04A
:100EC000C8014DDD882309F448C084E090E0909388
:100ED0005F0580935E05AADA80E090E0A4E3B3ECBE
:100EE0008093680590936905A0936A05B0936B059C
:100EF0009DDA1092600510926105109262051092C1
:100F0000630594DA109264051092650510926605E7
:100F1000109267051092700510927105109272057B
:100F20001092730510927405109275051092760553
:100F300010927705109278051092790510927A0533
:100F400010927B0510925F0510925E0585EB92E092
:100F5000E7DC82E892E0E4DC9DCF68EB72E0C80158
:100F6000FEDC882399F084E895E0EADB83ED95E0E8
:100F700046DC80E895E0C2DB8EEC95E015DC85E090
:100F800090E090935F0580935E0584CF8EEB92E0B6
:100F9000C7DC19A281E388A3CE018096C1DC82E878
:100FA00092E0BEDC80CFFF920F931F93CF93DF932D
:100FB00000D000D01F921F92CDB7DEB786E0F82E8A
:100FC00081EC94E0BFDA20915C06892B09F43FC0E4
:100FD00027FD3DC0E0916306F09164068481958110
:100FE0000897ACF581EC94E08BDA8A3009F07EC08A
:100FF00064E872E08DE596E07FDD10E080915C06AC
:10100000181708F03DC0E12FF0E0E852FA4F0481D4
:101010006DE576E0CE010196C0DD0F83188641E0D4
:1010200050E0BE01695F7F4FCE010196D5DC811192
:1010300003C0CE0101960ADDBE016F5F7F4F8DE5D3
:1010400096E096DDCE010196C0DD1F5FD7CF27FF6A
:101050000BC010925C0681EC94E0F7DAE091DA05BF
:10106000F091DB0585E0199528960FB6F894DEBF60
:101070000FBECDBFDF91CF911F910F91FF900895CB
:1010800010925C060091630610916406F8012481B9
:10109000358180859185281739070CF091CF4681DD
:1010A000578122813381C901019693838283F29E05
:1010B000C001F39E900D11246DE576E0840F951F1D
:1010C00057DDF8018481958101969583848382811F
:1010D000938120853185281739070CF071CF2F5F58
:1010E0003F4F821B930B938382836ACF90915C0660
:1010F000E92FF0E0E852FA4F84839F5F90935C06FB
:101100005FCF2CDA81114FDF80E090E0892B49F02E
:1011100080E090E0892B29F00E94000081110E945C
:10112000000080E090E0892B49F080E090E0892B7E
:1011300029F00E94000081110E94000080E090E0F0
:10114000892B49F080E090E0892B29F00E94000073
:1011500081110C9400000895AF92BF92CF92DF925C
:10116000EF92FF920F931F93CF93DF93EC01E091E7
:10117000D104F091D20482E08083E091CD04F0911B
:10118000CE041082E091CF04F091D00480E18083FE
:101190001092D904E091D504F091D60486E08083C2
:1011A000E091D304F091D404808180618083E09148
:1011B000D304F091D404808188608083E091D304CB
:1011C000F091D404808180688083E091D304F09111
:1011D000D40480818F7D808364E872E0CE018B57D8
:1011E0009F4F8ADCFE01349680E011928F5F803839
:1011F000E1F7FE01EC57FF4F10828AE090E0A5D79F
:101200008C01FC01118210821382128215821482D9
:1012100088E090E09187808788E390E096D729E086
:1012200030E0FC01219331937F016F015C01F8E311
:10123000AF0EB11C64E872E0C601B7DC26E0C20E56
:10124000D11CAC14BD04B1F7F801F782E682C55792
:10125000DF4F19830883DF91CF911F910F91FF908A
:10126000EF90DF90CF90BF90AF9008951F920F92B4
:101270000FB60F9211242F933F938F939F93AF93A9
:10128000BF938091E5029091E602A091E702B091B0
:10129000E8023091E40223E0230F2D3758F5019640
:1012A000A11DB11D2093E4028093E5029093E60214
:1012B000A093E702B093E8028091E9029091EA02DC
:1012C000A091EB02B091EC020196A11DB11D80939B
:1012D000E9029093EA02A093EB02B093EC02BF9173
:1012E000AF919F918F913F912F910F900FBE0F90D3
:1012F0001F90189526E8230F0296A11DB11DD2CF8D
:101300001F920F920FB60F9211240BB60F922F93CC
:101310003F934F935F936F937F938F939F93AF937D
:10132000BF93EF93FF93E0910E02F0910F02199596
:10133000FF91EF91BF91AF919F918F917F916F91AD
:101340005F914F913F912F910F900BBE0F900FBE69
:101350000F901F9018951F920F920FB60F921124A5
:101360000BB60F922F933F934F935F936F937F939F
:101370008F939F93AF93BF93EF93FF93E0910C02F2
:10138000F0910D021995FF91EF91BF91AF919F914F
:101390008F917F916F915F914F913F912F910F901E
:1013A0000BBE0F900FBE0F901F9018951F920F92BB
:1013B0000FB60F9211240BB60F922F933F934F93BA
:1013C0005F936F937F938F939F93AF93BF93EF93AD
:1013D000FF93E0910202F09103021995FF91EF91C2
:1013E000BF91AF919F918F917F916F915F914F913D
:1013F0003F912F910F900BBE0F900FBE0F901F903B
:1014000018951F920F920FB60F9211240BB60F92E0
:101410002F933F934F935F936F937F938F939F93FC
:10142000AF93BF93EF93FF93E0910002F09101021D
:101430001995FF91EF91BF91AF919F918F917F91FE
:101440006F915F914F913F912F910F900BBE0F9035
:101450000FBE0F901F9018951F920F920FB60F920C
:1014600011240BB60F922F933F934F935F936F937B
:101470007F938F939F93AF93BF93EF93FF93E091ED
:101480000A02F0910B021995FF91EF91BF91AF9174
:101490009F918F917F916F915F914F913F912F918C
:1014A0000F900BBE0F900FBE0F901F9018951F92BC
:1014B0000F920FB60F9211240BB60F922F933F93FA
:1014C0004F935F936F937F938F939F93AF93BF934C
:1014D000EF93FF93E0910802F09109021995FF91B3
:1014E000EF91BF91AF919F918F917F916F915F919C
:1014F0004F913F912F910F900BBE0F900FBE0F9009
:101500001F9018951F920F920FB60F9211240BB6D1
:101510000F922F933F934F935F936F937F938F938C
:101520009F93AF93BF93EF93FF93E0910602F091E7
:1015300007021995FF91EF91BF91AF919F918F9104
:101540007F916F915F914F913F912F910F900BBEC3
:101550000F900FBE0F901F9018951F920F920FB60D
:101560000F9211240BB60F922F933F934F935F93DB
:101570006F937F938F939F93AF93BF93EF93FF935B
:10158000E0910402F09105021995FF91EF91BF914E
:10159000AF919F918F917F916F915F914F913F910B
:1015A0002F910F900BBE0F900FBE0F901F901895AC
:1015B0001F920F920FB60F9211240BB60F922F931A
:1015C0003F934F935F936F937F938F939F93AF93CB
:1015D000BF93EF93FF9381EC94E00E94B702FF91D9
:1015E000EF91BF91AF919F918F917F916F915F919B
:1015F0004F913F912F910F900BBE0F900FBE0F9008
:101600001F9018951F920F920FB60F9211240BB6D0
:101610000F922F938F939F93EF93FF93E091D104B9
:10162000F091D2048081E091D704F091D80482FD3A
:101630001DC090818091DA048F5F8F732091DB044D
:10164000821741F0E091DA04F0E0EF53FB4F958F01
:101650008093DA04FF91EF919F918F912F910F90DA
:101660000BBE0F900FBE0F901F9018958081F2CF88
:10167000E1ECF4E01382128288EE93E0A0E0B0E0A7
:1016800084839583A683B7838AE192E091838083E4
:1016900085EC90E09587848784EC90E09787868737
:1016A00080EC90E0918B808B81EC90E0938B828B2F
:1016B00082EC90E0958B848B86EC90E0978B868B08
:1016C000118E128E138E148E8CE292E09093D905B7
:1016D0008093D80564E872E08DE596E066DAE3ED84
:1016E000F5E084E792E09183808381E08483EEECEF
:1016F000F5E022E632E0318320838483E4E8F5E0FC
:1017000080E592E091838083148215828EE392E0DB
:101710009093810580938005EEE5F5E012821382B7
:1017200014821582168217821086118612861386FD
:101730001486158616861786108A118A128A138ACD
:10174000148A158A168A178A108E118E128E138E9D
:10175000148E158E168E178E10A211A20895CF9397
:10176000DF93CDB7DEB72C970FB6F894DEBF0FBE70
:10177000CDBF789484B5826084BD84B5816084BD1A
:1017800085B5826085BD85B5816085BD80916E001F
:10179000816080936E001092810080918100826050
:1017A000809381008091810081608093810080918D
:1017B00080008160809380008091B100846080937C
:1017C000B1008091B00081608093B0008091910061
:1017D000826080939100809191008160809391005C
:1017E000809190008160809390008091A100826040
:1017F0008093A1008091A10081608093A1008091DD
:10180000A00081608093A00080912101826080937C
:10181000210180912101816080932101809120012B
:1018200081608093200180917A00846080937A00A7
:1018300080917A00826080937A0080917A00816042
:1018400080937A0080917A00806880937A00109269
:10185000C100ADEEB2E030E020E0F901EE58FD4FFE
:101860001491A901445D5D4FFA010491802F90E02D
:10187000880F991FFC01E850FE4F65917491FA01A1
:101880004491442391F0FC01E252FE4F85919491E2
:1018900011967C936E9313969C938E931297149645
:1018A0001C93149715960C9315972F5F3F4F169620
:1018B0002E34310591F682E397E09093660680938B
:1018C000650688ED95E048DC0BE212E01093870591
:1018D0000093860584E895E00E94A0031093D60546
:1018E0000093D50583ED95E00E94FF0310938305D7
:1018F0000093820580E895E00E947E031093D10555
:101900000093D0058EEC95E00E94D40385E090E032
:1019100090935F0580935E0565EC72E0CE010196C1
:1019200044D9CE01019608D8CE0101964ED986E061
:10193000F82E0091630610916406F8018481958168
:10194000181619060CF060C020813181F29EC0018A
:10195000F39E900D112466817781680F791FCE0167
:1019600001961BD9F8018081918101969183808332
:1019700024813581215031093583248320853185A7
:101980002817390734F42F5F3F4F821B930B918345
:10199000808389819A8198878F838B819C819A87A4
:1019A00089878D819E819C878B871A8219821C82F0
:1019B0001B821E821D82CE01019607D9CE01079699
:1019C00051DACE01079601D968EE73E080E090E02D
:1019D0000E94E60160E070E080E291E40E9415045C
:1019E00060ED77E080E090E00E94E60160E070E06A
:1019F00080E291EC0E94150460ED77E080E090E0D9
:101A00000E94E6017EDB95CF64E872E0CE01079686
:101A1000CCD8D4CF8CE292E09093D9058093D805AE
:101A20008DE596E0D2C8EF920F931F93CF93DF938B
:101A3000E80134E047FD34E1042E000C550B57FF5C
:101A400003C0519541955109E32E022F242FAE0179
:101A500007D0CE01DF91CF911F910F91EF900895A4
:101A60008F929F92AF92BF92CF92DF92EF92FF92AE
:101A70000F931F93CF93DF9300D000D000D0CDB74A
:101A8000DEB76A01F22EB02E102FFBE3AF2EA016A8
:101A900008F41BE31F5F012F27E0AE014F5F5F4F8C
:101AA00057D1BC018981982F9970913009F44EC0AB
:101AB0009BE2E1FC04C09E2D9170E0FC49C05E2DCC
:101AC0005071E82FE87083FF55C084E0911101C088
:101AD00083E0EF2DE81B8F1508F0E0E0D6018E2F94
:101AE00020E25523C9F1992329F0D6019C93C60120
:101AF00001966C0196012D5F3F4FE2FE33C08EE4EC
:101B0000D6018C9391E411969C93119712968C9325
:101B1000D9018E2F90E281112AC0E20FF32FF11D1F
:101B200010828EEF9FEF29960FB6F894DEBF0FBE9E
:101B3000CDBFDF91CF911F910F91FF90EF90DF907C
:101B4000CF90BF90AF909F908F9008959DE2B7CFB8
:101B500090E2B5CF2D9381508111FCCFCE0ED11CD8
:101B6000E0E0C1CF8EE6D6018C9391E6CCCF9D9379
:101B70008150D1CF482F447082FF3DC084E0911145
:101B800001C083E08F1510F4EF2DE81BD6018E2FD6
:101B900020E2552309F1992329F0D6019C93C6012F
:101BA00001966C0196012D5F3F4FE2FE1BC089E458
:101BB000D6018C938EE411968C93119786E412963D
:101BC0008C93D9018E2F90E2882309F4A6CF9D93A0
:101BD0008150FACF2D9381508111FCCFCE0ED11CB4
:101BE000E0E0D9CF89E6D6018C938EE611968C93EE
:101BF000119786E6E4CF9B0177FF02C030E020E03A
:101C0000A1E0B0E0911102C0B0E0A0E0F90131968E
:101C1000AE0FBF1F8B2C912CBB2009F461C0540167
:101C2000EFEFAE1ABE0AAA0DBB1DFA161B0619F07D
:101C300014F04F2D4A1B511188C0E3FC59C07601A6
:101C4000A42FB0E2A1114FC0C40ED11C992309F4F6
:101C50005BC040E0D6011196F60190836D015523DB
:101C600009F448C0012F060F9A81582F507184FF44
:101C700003C0913309F4015010160CF047C009302D
:101C800008F008E0EEE2FE2E5B01A01AB108850123
:101C90009194819491082F3F320729F4D601FC9248
:101CA000F60131966F016217730794F1021713075B
:101CB0007CF5DB01A21BB30BAA24A394B12CAC0EC0
:101CC000BD1EAA0DBB1D11968C9121503109D60164
:101CD000119628153905F4F0F60180836D01DBCFEC
:101CE000B12CA12CA0CFF701B1937F01A150AACFB5
:101CF0009111B0CFD601942F50E302C05D93915063
:101D00009111FCCFC40ED11C40E0ACCF01E0BACFA2
:101D100080E3DBCF6217730731F4963388F4953391
:101D200011F4552369F0F6018083FD01842F90E2C0
:101D3000811108C0A40FB11D1C9290E080E0F3CE89
:101D400081E3F1CF91938150F3CF911183CF8ACF6B
:101D5000283008F027E03327DA01990F311D87FD7D
:101D6000916000966105710539F432602E5F3D93F4
:101D700030E32A95E1F708959F3F30F080387105F0
:101D8000610509F03C5F3C5F3D93913008F080684D
:101D9000911DDF93CF931F930F93FF92EF92192F13
:101DA000987F9695E92F96959695E90FFF27E25C27
:101DB000FE4F99273327EE24FF24A701E701059062
:101DC0000894079428F4360FE71EF81E491F511D8A
:101DD000660F771F881F991F0694A1F70590079437
:101DE00028F4E70EF81E491F561FC11D770F881FE4
:101DF000991F661F0694A1F70590079428F4F80E22
:101E0000491F561FC71FD11D880F991F661F771FB7
:101E10000694A1F70590079420F4490F561FC71F99
:101E2000D81F990F661F771F881F0694A9F7849102
:101E30001095177041F0D695C79557954795F7942B
:101E4000E7941A95C1F7E4EEF0E0689415901591C7
:101E500035916591959105907FE27395E118F10AAE
:101E6000430B560BC90BD009C0F7E10CF11E431F01
:101E7000561FC91FD01D7EF4703311F48A95E6CF2A
:101E8000E894015030F0080F0AF40027021708F414
:101E9000202F2395022F7A3328F079E37D932A951A
:101EA000E9F710C07D932A9589F606949795679572
:101EB000379517951794E118F10A430B560BC90B88
:101EC000D00998F023957E9173957A3308F070E3EA
:101ED0007C932013B8F77E9170617D9330F08395E9
:101EE00071E37D9370E32A95E1F71124EF90FF9061
:101EF0000F911F91CF91DF91992787FD90950895BC
:101F000040D008F481E00895E89409C097FB3EF4BE
:101F100090958095709561957F4F8F4F9F4F992336
:101F2000A9F0F92F96E9BB279395F69587957795B4
:101F30006795B795F111F8CFFAF4BB0F11F460FF74
:101F40001BC06F5F7F4F8F4F9F4F16C0882311F0CC
:101F500096E911C0772321F09EE8872F762F05C0E0
:101F6000662371F096E8862F70E060E02AF09A957B
:101F7000660F771F881FDAF7880F9695879597F970
:101F80000895990F0008550FAA0BE0E8FEEF16160A
:101F90001706E807F907C0F012161306E407F5075D
:101FA00098F0621B730B840B950B39F40A2661F0D1
:101FB000232B242B252B21F408950A2609F4A14074
:101FC000A6958FEF811D811D08950BD078C069D033
:101FD00028F06ED018F0952309F05AC05FC0112484
:101FE000A2C07ED0A0F3959FD1F3950F50E0551F6E
:101FF000629FF001729FBB27F00DB11D639FAA275E
:10200000F00DB11DAA1F649F6627B00DA11D661FAC
:10201000829F2227B00DA11D621F739FB00DA11DCD
:10202000621F839FA00D611D221F749F3327A00D87
:10203000611D231F849F600D211D822F762F6A2F23
:1020400011249F5750408AF0E1F088234AF0EE0FA8
:10205000FF1FBB1F661F771F881F91505040A9F7B5
:102060009E3F510570F014C05EC05F3FECF3983E98
:10207000DCF3869577956795B795F795E7959F5F1C
:10208000C1F7FE2B880F911D9695879597F90895B6
:1020900097F99F6780E870E060E008959FEF80EC1B
:1020A000089500240A9416161706180609060895BE
:1020B00000240A9412161306140605060895092E24
:1020C0000394000C11F4882352F0BB0F40F4BF2B93
:1020D00011F460FF04C06F5F7F4F8F4F9F4F0895D3
:1020E00057FD9058440F551F59F05F3F71F04795C9
:1020F000880F97FB991F61F09F3F79F087950895AE
:10210000121613061406551FF2CF4695F1DF08C0CC
:10211000161617061806991FF1CF869571056105E9
:1021200008940895E894BB2766277727CB0197F991
:10213000089527DF08F48FEF0895EE0FFF1F881F23
:102140008BBF0790F691E02D19940F931F93CF93B7
:10215000DF938230910510F482E090E0E09169060F
:10216000F0916A0630E020E0B0E0A0E0309799F40A
:102170002115310509F44AC0281B390B24303105DB
:10218000D8F58A819B816115710589F1FB019383E3
:102190008283FE0111C04081518102811381481761
:1021A0005907E0F04817590799F4109761F0129613
:1021B0000C93129713961C933296CF01DF91CF9117
:1021C0001F910F9108950093690610936A06F4CF4A
:1021D0002115310551F04217530738F0A901DB01F1
:1021E0009A01BD01DF01F801C1CFEF01F9CF909352
:1021F0006A0680936906CDCFFE01E20FF31F81933B
:1022000091932250310939832883D7CF20916706D3
:1022100030916806232B41F4209112023091130271
:1022200030936806209367062091100230911102C6
:102230002115310541F42DB73EB74091140250915C
:102240001502241B350BE0916706F0916806E21732
:10225000F307A0F42E1B3F0B2817390778F0AC01C9
:102260004E5F5F4F2417350748F04E0F5F1F5093A6
:10227000680640936706819391939FCFF0E0E0E07A
:102280009CCFCF93DF930097E9F0FC013297138244
:102290001282A0916906B0916A06ED0130E020E05B
:1022A0001097A1F420813181820F931F209167063E
:1022B000309168062817390709F061C0F093680665
:1022C000E0936706DF91CF910895EA01CE17DF070B
:1022D000E8F54A815B819E0141155105B1F7E9019D
:1022E000FB83EA8349915991C40FD51FEC17FD0771
:1022F00061F4808191810296840F951FE901998391
:102300008883828193819B838A83F0E0E0E0129648
:102310008D919C9113970097B9F52D913C91119750
:10232000CD010296820F931F2091670630916806B7
:102330002817390739F6309751F510926A0610922E
:102340006906B0936806A0936706BCCFD383C283A7
:1023500040815181840F951FC817D90761F44E5FE2
:102360005F4F88819981480F591F518340838A812B
:102370009B81938382832115310509F0B0CFF093BF
:102380006A06E09369069ECFFD01DC01C0CF13828F
:102390001282D7CF4F925F926F927F928F929F92CD
:1023A000AF92BF92CF92DF92EF92FF920F931F9363
:1023B000CF93DF938C01009791F4CB01DF91CF9104
:1023C0001F910F91FF90EF90DF90CF90BF90AF9053
:1023D0009F908F907F906F905F904F90B6CEFC0152
:1023E000E60FF71F9C0122503109E217F30708F4AA
:1023F000AAC0D901CD91DC911197C617D70718F162
:10240000C530D10570F0CE0104978617970748F0C4
:10241000C61BD70B2297C193D1936D937C93CF01A9
:1024200030DFC801DF91CF911F910F91FF90EF90A6
:10243000DF90CF90BF90AF909F908F907F906F90E4
:102440005F904F9008955B01AC1ABD0A4C018C0E51
:102450009D1EA0916906B0916A06512C412CF12C69
:10246000E12C109731F580916706909168068815E8
:10247000990509F05CC04616570608F058C08091CF
:10248000100290911102009741F48DB79EB74091D0
:10249000140250911502841B950BE817F90708F0F8
:1024A00052C0F0936806E0936706F9017183608378
:1024B000B8CF8D919C91119712966C9012971396AC
:1024C0007C901397A815B90559F56C0142E0C40E2C
:1024D000D11CCA14DB0420F1AC014A195B09DA01F2
:1024E0001296159780F06282738251834083D901DE
:1024F0006D937C93E114F10471F0D7011396FC9372
:10250000EE9312978ECF22968C0F9D1FF901918327
:102510008083F301EFCFF0936A06E093690681CFE1
:102520004816590608F42C017D01D3019ACFCB013E
:102530000CDE7C01009739F0AE01B80107D0C8016C
:10254000A0DE87016ECF10E000E06BCFFB01DC0165
:1025500002C001900D9241505040D8F70895FB0100
:10256000DC018D91019080190110D9F3990B089528
:10257000FB01DC0101900D920020E1F7089511E0CC
:10258000CDE5D1E000E005C0802FFE01D6DD21962B
:10259000011DCE35D10780E00807B1F7F894FFCFD1
:1025A0004302430243024302430243024302430203
:1025B00000006B06800000000000D9024402710296
:1025C0002503A2028002940200000000AC0813045C
:1025D00014041304130413041304000000007E0306
:1025E0008F031404130413041304130400000000E5
:1025F000A003BA0314049C039903950392030000FB
:102600000000D403E5031404130413041304130497
:1026100000000000FF031004140413041304130447
:1026200013040D0A003C0069646C650072756E004D
:10263000686F6C64006A6F6700686F6D696E670031
:10264000616C61726D007C002C004C0050003E00FB
:102650003F002448006F6B007265736574006572FB
:10266000726F723A00536F7572636552616262698C
:102670007420434E43204669726D77617265203144
:042680002E310000F7
:00000001FF
