:1000000080C100000C94CA110C949F110C947411BF
:100010000C9449110C941E110C94F3100C94C810FC
:100020000C949D109FC100009DC100009BC1000069
:1000300099C1000097C1000095C1000093C1000064
:1000400091C100008FC100008DC100008BC1000074
:1000500089C1000087C1000085C100000C945310C5
:1000600081C100000C941F120C94F5117BC100009B
:1000700079C1000077C1000075C1000073C10000A4
:1000800071C100006FC100006DC100006BC10000B4
:1000900069C1000067C1000065C1000063C10000C4
:1000A00061C100005FC100005DC100005BC10000D4
:1000B00059C1000057C1000055C1000053C10000E4
:1000C00051C100004FC100004DC100004BC10000F4
:1000D00049C1000047C1000045C1000043C1000004
:1000E00041C1000000407A10F35A00A0724E180976
:1000F0000010A5D4E80000E87648170000E40B548F
:10010000020000CA9A3B000000E1F505000080965D
:100110009800000040420F000000A086010000008F
:10012000102700000000E803000000006400000049
:1001300000000A00000000000100000000002C7612
:10014000D888DC674F0823DFC1DFAE59E1B1B7962D
:10015000E5E3E453C63AE651997696E8E6C284268A
:10016000EB898C9B62ED407C6FFCEFBC9C9F40F266
:10017000BAA56FA5F490055A2AF75C936B6CF967E2
:100180006DC11BFCE0E40D47FEF520E6B500D0EDA7
:10019000902E0300943577050080841E080000200F
:1001A0004E0A000000C80C333333330F986E1283AD
:1001B0001141EF8D2114893BE65516CFFEE6DB1881
:1001C000D1844B381BF77C1D901DA4BBE424203246
:1001D00084725E228100C9F124ECA1E53D27000074
:1001E00020002300260029002C002F0032000001EF
:1001F000000003010601090100002100240027007E
:100200002A002D0030003300010100000401070125
:100210000A0100002200250028002B002E003100DA
:10022000340002010000050108010B010505050568
:10023000070508080808020202020A0A080804045E
:10024000040401010101010101010303030303038C
:100250000303040707070C0C0C0C0C0C0C0C02021B
:10026000020206060606060606060B0B0B0B0B0B18
:100270000B0B0102102020080810204010204080A5
:10028000020102010804020101020408102040805A
:1002900080402010080402018004020180402010E8
:1002A0000804020108040201010204081020408031
:1002B000010204081020408000000A0B02090C0D06
:1002C0000E08070304010000000000000000000009
:1002D000000000000000000000000000000000001E
:1002E00000000000121110000000000000000000DB
:1002F0000000000000000000000000000000B2123A
:10030000231511241FBECFEFD1E2DEBFCDBF00E029
:100310000CBF27E0AEEFB2E001C01D92A138B207DA
:10032000E1F712E0A0E0B2E0EAEFF8E300E00BBF93
:1003300002C007900D92AE3FB107D9F711E0C0E8B7
:10034000D1E000E006C021970109802FFE010E9444
:10035000281ACF37D10780E00807A9F70E944D136C
:100360000C946C1C4DCE282F30E0F901E854FD4F61
:100370009491F901EE58FD4F4491245D3D4FF901F0
:100380002491222309F435C0992311F1915092311F
:10039000F8F4E92FF0E08827EF52FE4F8F4F0C94CE
:1003A000281A02020602E301FA01FE01E80109022D
:1003B0000F02130219021D02210227022B02E8017B
:1003C0002F0235023902809180008F778093800060
:1003D000E22FF0E0EE0FFF1FEE5EFD4FA591B4910E
:1003E0008FB7F894EC91611148C040954E234C931F
:1003F0008FBF0895809180008F7DE8CF809180002D
:10040000877FE4CF84B58F7784BDE2CF84B58F7DBD
:10041000FBCF8091B0008F778093B000D9CF8091CF
:10042000B0008F7DF9CF809190008F7780939000FE
:10043000CFCF809190008F7DF9CF80919000877F02
:10044000F5CF8091A0008F778093A000C1CF8091DD
:10045000A0008F7DF9CF8091A000877FF5CF80919C
:1004600020018F7780932001B3CF809120018F7D71
:10047000F9CF80912001877FF5CF4E2BB8CFCF9356
:10048000DF9390E0FC01EE58FD4F2491845D9D4F79
:10049000FC0184918823D1F090E0880F991FFC0122
:1004A000E850FE4FA591B491FC01EE5EFD4FC59161
:1004B000D491623071F49FB7F8943C91822F80956B
:1004C00083238C93E8812E2B28839FBFDF91CF91CC
:1004D00008958FB7F894EC912E2B2C938FBFF6CF05
:1004E0003FB7F8948091D7049091D804A091D90493
:1004F000B091DA0426B5A89B05C02F3F19F00196EC
:10050000A11DB11D3FBFBA2FA92F982F8827BC016D
:10051000CD01620F711D811D911D42E0660F771F95
:10052000881F991F4A95D1F70895CF92DF92EF92D5
:10053000FF92D6DF6B017C01D3DF6C197D098E0938
:100540009F09683E734081059105B0F3FF90EF90DD
:10055000DF90CF9008958091C205811102C0E5DF40
:10056000FACF8091C205882311F0DFDFFACF08951A
:10057000823061F018F4813031F00895833049F011
:10058000843059F008958093C20508951092C205F1
:10059000089581E08093C30508951092C3050895DE
:1005A0000895AF92BF92CF92DF92EF92FF920F9396
:1005B0001F93CF93DF936C017B018B01040F151FF9
:1005C000EB015E01AE18BF08C017D10759F0699161
:1005D000D601ED91FC910190F081E02DC6011995B5
:1005E000892B79F7C501DF91CF911F910F91FF9072
:1005F000EF90DF90CF90BF90AF900895FC01538DA6
:10060000448D252F30E0842F90E0821B930B5417EC
:1006100010F0CF96089501970895FC01918D828D79
:10062000981761F0A28DAE0FBF2FB11D5D968C9112
:10063000928D9F5F9F73928F90E008958FEF9FEF51
:100640000895FC01918D828D981731F0828DE80F0D
:10065000F11D858D90E008958FEF9FEF0895FC01C7
:10066000918D228D892F90E0805C9F4F821B910994
:100670008F73992708958BEE94E0F1DF21E0892BA9
:1006800009F420E0822F0895FC01A48DA80FB92F52
:10069000B11DA35ABF4F2C91848D90E001968F73AA
:1006A0009927848FA689B7892C93A089B1898C91C9
:1006B000837080648C93938D848D981306C0028818
:1006C000F389E02D80818F7D80830895EF92FF92E2
:1006D0000F931F93CF93DF93EC0181E0888F9B8D65
:1006E0008C8D98131AC0E889F989808185FF15C01F
:1006F0009FB7F894EE89FF896083E889F989808142
:100700008370806480839FBF81E090E0DF91CF9110
:100710001F910F91FF90EF900895F62E0B8D10E032
:100720000F5F1F4F0F731127E02E8C8D8E110BC0A2
:100730000FB607FCFACFE889F989808185FFF5CFEC
:10074000CE01A2DFF2CFEB8DEC0FFD2FF11DE35AAE
:10075000FF4FF0829FB7F8940B8FEA89FB89808165
:100760008062D0CFCF93DF93EC01888D8823B1F0E6
:10077000AA89BB89E889F9898C9185FD03C08081AC
:1007800086FD0CC00FB607FCF7CF8C9185FFF2CF2A
:10079000808185FFEDCFCE0177DFEACFDF91CF916A
:1007A0000895CF93DF93EC01862F6FA761E067DE9A
:1007B0006EA581E068278FA5DF91CF91D4CDCF932F
:1007C000DF93FC012381222329F1EC0161E0848184
:1007D00056DE61E08D8153DE8B81843011F08830EC
:1007E00091F461E08E814BDE61E08F8148DE8FA560
:1007F0008F3F81F061E043DE6EA581E068278FA521
:10080000DF91CF91B0CD833011F0863081F761E078
:100810008E81ECCFDF91CF910895CF93DF93FC01D0
:100820002381222399F0EC010190F081E02D0480D6
:10083000F581E02D60E019958FA58F3F39F061E0DB
:100840001EDE6EA58FA5DF91CF918DCDDF91CF916B
:100850000895DC01ED91FC91119724813581477059
:10086000552766277727415051096109710947309B
:1008700051056105710570F4FA018827ED5BFB4FA6
:100880008F4F0C94281A4E045004520454045604FA
:1008900058045A0461E0CD01F901199465E0FBCFD9
:1008A00064E0F9CF66E0F7CF62E0F5CF6AE0F3CF1E
:1008B00068E0F1CF69E0EFCFCF93DF93EC01CB019C
:1008C000BA0126E030E040E050E00E940C1A6230AD
:1008D00071058105910589F16CF46115710581053A
:1008E0009105D1F06130710581059105F9F0DF9135
:1008F000CF910895643071058105910561F124F16E
:10090000653071058105910591F7E881F9810480D1
:10091000F581E02D66E006C0E881F9810480F5816B
:10092000E02D64E0CE01DF91CF911994E881F98147
:100930000480F581E02D65E0F5CFE881F981048040
:10094000F581E02D61E0EECFE881F9810480F58149
:10095000E02D63E0E7CFE881F9810480F581E02DA7
:1009600062E0E0CFDC01ED91FC910480F581E02DA7
:100970004370552766277727423051056105710579
:1009800071F0433051056105710559F04130510551
:100990006105710511F065E0199466E0FDCF6AE02C
:1009A000FBCF69E0F9CFCF93DF93EC01CB01BA0124
:1009B00023E030E040E050E00E940C1A6130710505
:1009C0008105910599F06230710581059105A9F0C5
:1009D000672B682B692BC1F4E881F9810480F581CC
:1009E000E02D64E0CE01DF91CF911994E881F98187
:1009F0000480F581E02D61E0F5CFE881F981048084
:100A0000F581E02D62E0EECFDF91CF910895DC011A
:100A1000ED91FC910480F581E02D43705527662708
:100A20007727423051056105710571F0433051055A
:100A30006105710559F0413051056105710511F0ED
:100A400062E0199463E0FDCF61E0FBCF60E0F9CF95
:100A5000CF93DF93EC01E881F9810480F581E02DEB
:100A60008A8160E0811162E0CE011995E881F98107
:100A70000480F581E02D8A8161E0811163E0CE017F
:100A800019958CA59DA58230910538F0880F991F86
:100A9000880F991F05970197F1F7E881F981048084
:100AA000F581E02D8A8160E0811162E0CE01DF9165
:100AB000CF911994CF93DF93EC0120E030E0A901AE
:100AC0006C897D898E899F890E94B11918162CF432
:100AD000E8A9F9A9DF91CF911994EAA9FBA9FACF66
:100AE000CF92DF92EF92FF920F931F93CF93DF93FA
:100AF000DC011396CC91C43039F0C83051F1C330C9
:100B000019F0C63041F1C2E08C010C5F1F4FF12C8F
:100B1000E12CC62ED12CD1E0F8016481C6010E2C47
:100B200002C0959587950A94E2F780FD6D270F5FC7
:100B30001F4F808118DCBFEFEB1AFB0AEC1660F345
:100B4000DF91CF911F910F91FF90EF90DF90CF90A9
:100B50000895C4E0D9CFC3E0D7CFDC011396EC9160
:100B60001397E93008F042C0F0E08827E554FA4FC7
:100B70008F4F0C94281AC405CC05D305DA05E1057E
:100B8000F605E805F605EF05ED91FC911197008457
:100B9000F185E02DCD011994ED91FC91119702841E
:100BA000F385E02DF7CFED91FC9111970484F58545
:100BB000E02DF0CFED91FC9111970684F785E02DA3
:100BC000E9CFED91FC9111970088F189E02DE2CFFA
:100BD000ED91FC9111970288F389E02DDBCFED9127
:100BE000FC9111970488F589E02DD4CF08954F9298
:100BF0005F926F927F92AF92BF92CF92DF92EF920D
:100C0000FF920F931F93CF93DF93EC015A018B0157
:100C10009A01AB016C897D898E899F890E949A1700
:100C2000882379F1488C598C6A8C7B8C7301620122
:100C3000F7FAF094F7F8F094A7019601B501C8010E
:100C40000E949A1787FD0CC0A3019201B501C8014B
:100C50000E94B11973016201181614F06501780140
:100C600020E030E0A901C701B6010E949A17811166
:100C700017C01CA21DA21EA21FA2CC8ADD8AEE8A6A
:100C8000FF8ADF91CF911F910F91FF90EF90DF903E
:100C9000CF90BF90AF907F906F905F904F900895EE
:100CA000A701960160E074E284E799E40E941819B4
:100CB0009F770E9485196CA37DA38EA39FA311E04B
:100CC00020E030E0A901C701B6010E94B119181651
:100CD0000CF010E01A83D1CF4F925F926F927F9207
:100CE0008F929F92AF92BF92CF92DF92EF92FF923C
:100CF0000F931F93CF93DF93EC01C888D988EA88BC
:100D0000FB888C859D85AE85BF85C81AD90AEA0AFD
:100D1000FB0A6C897D898E899F899B01AC010E94A9
:100D2000FF174B015C016C8D7D8D8E8D9F8D9B011E
:100D3000AC010E94B4189B01AC01C501B4010E9432
:100D400018190E948019C114D104E104F10409F0BA
:100D5000B1C062307105810591050CF0CBC01CA2B9
:100D60001DA21EA21FA21C8A1D8A1E8A1F8A1CAADF
:100D70001DAA1EAA1FAADF91CF911F910F91FF906C
:100D8000EF90DF90CF90BF90AF909F908F907F902B
:100D90006F905F904F90089510161106120613067B
:100DA000B4F46C157D058E059F051CF42A81211174
:100DB000A1C09B01AC0188279927DC01821B930B02
:100DC000A40BB50B8CAB9DABAEABBFAB93C0011509
:100DD00011052105310509F48DC06C157D058E05C1
:100DE0009F050CF087C08A81882309F483C0309561
:100DF0002095109501951F4F2F4F3F4F0CAB1DAB0A
:100E00002EAB3FAB77C0011511052105310509F463
:100E100071C08824992454018C189D08AE08BF081D
:100E2000681579058A059B050CF064C08A818111DB
:100E300061C0DDCFCCACDDACEEACFFACA701960160
:100E4000C701B6010E94B4182B013C01C501B401D1
:100E50000E94A01720E030E040E850E40E94FF1715
:100E600020E030E040E85FE30E94B4189B01AC0151
:100E7000C301B2010E9418199B01AC01C701B60160
:100E80000E94B3183B016C01FE01E05CFF4FE08063
:100E9000F180028113819701A8010E94B1191816EF
:100EA00014F473018601C701D8018CAF9DAFAEAFBA
:100EB000BFAF3AC00CA91DA92EA93FA91C141D043F
:100EC0001E041F040CF468CF101611061206130638
:100ED0000CF099CF0027112798010C191D092E0934
:100EE0003F0960177107820793070CF062CF2A81D0
:100EF00021115FCF8CA89DA8AEA8BFA88114910432
:100F0000A104B10409F096CF88AD99ADAAADBBADEF
:100F10008CAF9DAFAEAFBFAF81E01C141D041E04AB
:100F20001F040CF080E08A833FEF831A930AA30A20
:100F3000B30A8CAA9DAAAEAABFAACCACDDACEEAC1B
:100F4000FFACC701B6010E9485196CA37DA38EA3D7
:100F50009FA3A701960160E074E284E799E40E94F0
:100F600018196C8B7D8B8E8B9F8B2A81211103CF5F
:100F700090586C8B7D8B8E8B9F8BFDCE0F931F9328
:100F800020E030E048E454E46091DB047091DC043C
:100F90008091DD049091DE040E94FF170E94801969
:100FA0000091B0061091B1062091B2063091B306BF
:100FB000601771078207930759F06093B00670932A
:100FC000B1068093B2069093B30680EA96E084DE81
:100FD00020E030E048E453E46091DF047091E004E5
:100FE0008091E1049091E2040E94FF170E94801911
:100FF00000916C0610916D0620916E0630916F067F
:10100000601771078207930759F060936C0670931D
:101010006D0680936E0690936F068CE596E05CDE1D
:1010200020E030E048E453E46091E3047091E4048C
:101030008091E5049091E6040E94FF170E948019B8
:10104000009128061091290620912A0630912B063E
:10105000601771078207930759F060932806709311
:10106000290680932A0690932B0688E196E034DEC9
:1010700020E030E048E453E46091E7047091E80434
:101080008091E9049091EA040E94FF170E94801960
:101090000091E4051091E5052091E6053091E70502
:1010A000601771078207930769F06093E4057093F6
:1010B000E5058093E6059093E70584ED95E01F91A3
:1010C0000F910ACE1F910F910895CF92DF92EF9268
:1010D000FF920F931F93CF93DF93EC016A017B0183
:1010E00020E030E0A901CB01B6010E949A1787FFEA
:1010F00004C0F7FAF094F7F8F094A7019601688D10
:10110000798D8A8D9B8D0E949A17882309F445C09A
:10111000C88ED98EEA8EFB8E8E01005C1F4FA70110
:10112000960160E074E284E799E40E941819F801DE
:1011300060837183828393838CA99DA9AEA9BFA983
:10114000181619061A061B0644F56C897D898E89C6
:101150009F899B01AC010E94FF176B017C016C8D84
:101160007D8D8E8D9F8D9B01AC010E94B4189B01DB
:10117000AC01C701B6010E9418190E9480196CAB1E
:101180007DAB8EAB9FABCE01DF91CF911F910F91C5
:10119000FF90EF90DF90CF909FCDDF91CF911F9187
:1011A0000F91FF90EF90DF90CF900895CF92DF9254
:1011B000EF92FF92CF93DF93EC018CA19DA1AEA1A2
:1011C000BFA1892B8A2B8B2B81F18AD96B017C01E2
:1011D00088A599A5AAA5BBA5B701A601481B590BCF
:1011E0006A0B7B0B8CA19DA1AEA1BFA1481759072B
:1011F0006A077B07D0F08C859D85AE85BF852A81E7
:101200002223A1F10196A11DB11D8C879D87AE8778
:10121000BF874C855D856E857F85CE019EDCC8A627
:10122000D9A6EAA6FBA6CE0157DD20E030E0A90151
:101230006C897D898E899F890E949A1781111AC0B5
:1012400081E0C888D988EA88FB884C855D856E85F1
:101250007F85C416D506E606F70609F480E0DF911F
:10126000CF91FF90EF90DF90CF9008950197A10963
:10127000B109CBCF81E0F3CF089562E082E0FFD8DF
:101280008CE399E09093010280930002EAE6F0E09B
:1012900080818C7F82608083EC9A08958AEB95E050
:1012A000ECCFFC011582089521E0FC01258308950F
:1012B000FC011482089521E0FC0124830895E0914B
:1012C0006C03F0916D03808190916E03892391E00E
:1012D00009F090E09093E806882331F084E0E091F3
:1012E000E606F091E706199483E0F9CF62E082E127
:1012F000C6D88FE599E090930B0280930A02E9E645
:10130000F0E080818F7380648083EB9AD8CF84EE85
:1013100096E0ECCFE0911203F0911303808190915D
:101320001403892391E009F090E09093ED0688235F
:1013300031F082E0E091EB06F091EC06199481E047
:10134000F9CF62E083E09BD88AE899E090930302AA
:1013500080930202EAE6F0E08081837F84608083EC
:10136000ED9AD8CF89EE96E0ECCF08950895FC0170
:1013700001900020E9F73197AF01481B590BBC01E0
:101380008BEE94E00EC9CF93DF93FC01448155812D
:10139000608171818BEE94E004D9EC018CE992E0DC
:1013A000E6DF8C0F9D1FDF91CF910895FC01248112
:1013B0003581232B39F421E0FB018081882349F01A
:1013C00020E007C0808191810E945C1C21E0892B74
:1013D000B9F7822F08950F931F93CF93DF93EC01FA
:1013E00088819981009759F02A813B812617370718
:1013F00030F081E0DF91CF911F910F9108958B0123
:101400006F5F7F4F0E94771B009759F09983888305
:101410001B830A832C813D81232B59F7FC01108209
:10142000E8CF80E0E7CFEF92FF920F931F93CF9327
:10143000DF936115710541F480E0DF91CF911F9139
:101440000F91FF90EF90089541155105A9F07B0190
:10145000EC010C811D81040F151FB801BCDF88232E
:1014600059F3288139818C819D81B701820F931FA7
:101470000E94651C1D830C8381E0DFCFFB0101907E
:101480000020E9F73197AF01461B570BCCCFFB018A
:101490004481558160817181C6CFCF93DF93EC0188
:1014A00088819981009711F00E94EE1A19821882A2
:1014B0001D821C821B821A82DF91CF910895CF93E7
:1014C000DF93EC01FB0101900020E9F73197AF01B8
:1014D000461B570BA8DF811102C0CE01DEDFCE0113
:1014E000DF91CF910895CF93DF93EC01FB0144810D
:1014F00055816081718197DF811102C0CE01CDDFFE
:10150000CE01DF91CF910895EF92FF920F931F9339
:10151000CF93DF93EC017B018A01BA015CDF81117B
:101520000AC0CE01BADFCE01DF91CF911F910F919A
:10153000FF90EF9008951D830C83B70188819981F6
:101540000E94651CF0CFFB0101900020E9F7319764
:10155000AF01461B570BD8CFEF92FF920F931F930B
:10156000CF93DF93CDB7DEB7A1970FB6F894DEBF68
:101570000FBECDBF7C01CB01BA01F70111821082F1
:1015800013821282158214828E010F5F1F4F22E098
:1015900044E00E942D15009781F0BC01C701D3DF04
:1015A000A1960FB6F894DEBF0FBECDBFDF91CF91ED
:1015B0001F910F91FF90EF900895C7016EDFF0CF5C
:1015C000CF93DF93EC01FB018617970741F0608111
:1015D00071816115710539F04481558195DFCE0126
:1015E000DF91CF91089559DFFACFFC01118210826B
:1015F0001382128215821482E3CFFC0111821082C1
:101600001382128215821482FB0101900020E9F7F7
:101610003197AF01461B570B77CFFC018081918139
:10162000009711F00C94EE1A08950F931F93CF9327
:10163000DF93CDB7DEB7A4970FB6F894DEBF0FBE29
:10164000CDBF8C016FE972E0D8DF80918805909161
:1016500089058230910509F424C108F012C1009770
:1016600009F41CC166EA72E0019709F413C1BE01D6
:10167000695F7F4FCE010196B8DF60EC72E0CE016A
:1016800001961DDFBC01C80102DFCE010196C5DF56
:10169000CE010796C2DF6EE972E0CE014F96ADDF54
:1016A0004091960550919705609198057091990524
:1016B000CE01499651DF409192055091930560917A
:1016C000940570919505CE01439646DF40918E05B5
:1016D00050918F056091900570919105CE010D9606
:1016E0003BDF40918A0550918B0560918C0570918C
:1016F0008D05CE01019630DFBE016F5F7F4FCE01B9
:10170000079673DF62EC72E0CE010796D8DEBE0169
:10171000635F7F4FE8DE62EC72E0D1DEBE016D5E9A
:101720007F4FE1DE62EC72E0CADEBE01675E7F4F92
:10173000DADEBC01CE014F96AADECE0107966DDF40
:10174000CE0101966ADFCE010D9667DFCE0143968A
:1017500064DFCE01499661DF60EC72E0CE014F9606
:101760008DDE4091AE055091AF056091B00570914E
:10177000B105CE014996F0DE4091AA055091AB0526
:101780006091AC057091AD05CE014396E5DE4091C8
:10179000A6055091A7056091A8057091A905CE01F5
:1017A0000D96DADE4091A2055091A3056091A40543
:1017B0007091A505CE010196CFDEBE016F5F7F4F10
:1017C000CE01079612DF62EC72E0CE01079677DE5B
:1017D000BE01635F7F4F87DE62EC72E070DEBE01A8
:1017E0006D5E7F4F80DE62EC72E069DEBE01675E97
:1017F0007F4F79DEBC01CE014F9649DECE010796C0
:101800000CDFCE01019609DFCE010D9606DFCE0179
:10181000439603DFCE01499600DFBE01615E7F4F34
:10182000CE010196E2DE60EC72E0CE01019647DE69
:10183000BC01C8012CDECE010196EFDECE014F9631
:10184000ECDE8091ED06882321F064EC72E0C801A3
:1018500015DE8091E806882321F066EC72E0C8016D
:101860000DDE68EC72E0C80109DEC801A4960FB66F
:10187000F894DEBF0FBECDBFDF91CF911F910F91C6
:1018800008958430910599F078F06AEB72E005973D
:1018900009F0EDCECE010796B0DEE9CE61EA72E046
:1018A000F9CF6AEA72E0F6CF6FEA72E0F3CF63EB4A
:1018B00072E0F0CFFF920F931F93CF93DF9300D08E
:1018C00000D01F921F92CDB7DEB786E0F82E8BEEC8
:1018D00094E00E942F0320917207892B09F440C0E5
:1018E00027FD3EC0E0917907F0917A0784819581C8
:1018F0000897B4F58BEE94E00E940D038A3009F04E
:101900007FC06EE972E083E797E01DDE10E0809112
:101910007207181708F03EC0E12FF0E0E251F94FCE
:10192000048163E777E0CE0101965FDE0F831886BE
:1019300041E050E0BE01695F7F4FCE01019673DD4B
:10194000811103C0CE010196A8DDBE016F5F7F4FFC
:1019500083E797E035DECE0101965FDE1F5FD7CFCC
:1019600027FF0CC0109272078BEE94E00E94B20326
:10197000E091F006F091F10685E0199528960FB6F2
:10198000F894DEBF0FBECDBFDF91CF911F910F91B5
:10199000FF900895109272070091790710917A07CD
:1019A000F8012481358180859185281739070CF04D
:1019B0008ECF4681578122813381C901019693835D
:1019C0008283F29EC001F39E900D112463E777E0BD
:1019D000840F951FF5DDF80184819581019695832B
:1019E00084838281938120853185281739070CF003
:1019F0006ECF2F5F3F4F821B930B9383828367CF02
:101A000090917207E92FF0E0E251F94F84839F5FD4
:101A1000909372075CCF0E943B0381114BDF80E003
:101A200090E0892B49F080E090E0892B29F00E941A
:101A3000000081110E94000080E090E0892B49F0B5
:101A400080E090E0892B29F00E94000081110E9423
:101A5000000080E090E0892B49F080E090E0892B45
:101A600029F00E94000081110C94000008954F920B
:101A70005F926F927F928F929F92AF92BF92CF921E
:101A8000DF92EF92FF92CF93DF93EC016A017B012B
:101A900020E030E0A901CB01B6010E949A1787FF30
:101AA00004C0F7FAF094F7F8F0948C8C9D8CAE8C0F
:101AB000BF8CA7019601C501B4010E949A17882323
:101AC00009F448C06CA97DA98EA99FA90E94A017FE
:101AD0002B013C01A7019601C501B4010E94181910
:101AE0009B01AC01C301B2010E94FF170E94801943
:101AF0006CAB7DAB8EAB9FABA701960160E070E055
:101B000080E090E40E9418190E94B91926E53EE091
:101B10004DE25FE30E94FF1720E034E244E759E41E
:101B20000E94FF1768AF79AF8AAF9BAFCC8EDD8E76
:101B3000EE8EFF8ECE01DF91CF91FF90EF90DF9080
:101B4000CF90BF90AF909F908F907F906F905F905D
:101B50004F90C2C8DF91CF91FF90EF90DF90CF9070
:101B6000BF90AF909F908F907F906F905F904F90BD
:101B70000895EF92FF920F931F93CF93DF93EC01A1
:101B80008AE097EDA3EABAE38E839F83A887B9879B
:101B90008AE097EDA3EABBE38A879B87AC87BD8782
:101BA0008E879F87A88BB98B8A8B9B8BAC8BBD8BC9
:101BB00066E280EA96E00E94D1032E813F8148854B
:101BC000598565E575E585E892E40E941819AB0131
:101BD000BC0180EA96E079DA00EA16E0F801408D6F
:101BE000518D628D738DC80102D840E050E06AEFDC
:101BF00076E4C8013CDF84E1E82EF12CF801F5A67B
:101C0000E4A61486158616861786108A118A128A0B
:101C1000138A14AA15AA16AA17AA14A215A216A204
:101C200017A2148A158A168A178A68E38CE596E04B
:101C30000E94D1032A853B854C855D8565E575E568
:101C400085E892E40E941819AB01BC018CE596E08E
:101C50003CDA0CE516E0F801408D518D628D738DF4
:101C6000C8010E94F70540E050E06AEF75E4C80142
:101C7000FEDEF801F5A6E4A61486158616861786FC
:101C8000108A118A128A138A14AA15AA16AA17AAE8
:101C900014A215A216A217A2148A158A168A178AE8
:101CA0006EE388E196E00E94D1032E853F85488946
:101CB000598965E575E585E892E40E941819AB013C
:101CC000BC0188E196E001DA08E116E0F801408DF8
:101CD000518D628D738DC8010E94F70540E050E080
:101CE0006AEF75E4C801C3DEF801F5A6E4A6148620
:101CF000158616861786108A118A128A138A14AAE4
:101D000015AA16AA17AA14A215A216A217A2148A17
:101D1000158A168A178A68E184ED95E00E94D1033E
:101D20002A893B894C895D8965E575E585E892E4FA
:101D30000E941819AB01BC0184ED95E0C6D9C4ED31
:101D4000D5E0488D598D6A8D7B8DCE010E94F705B7
:101D500040E050E06AEF75E4CE0189DEFDA6ECA616
:101D60001C861D861E861F86188A198A1A8A1B8A57
:101D70001CAA1DAA1EAA1FAA1CA21DA21EA21FA247
:101D80001C8A1D8A1E8A1F8A61E086E20E943F0229
:101D900061E088E30E943F0261E08EE30E943F021F
:101DA00061E088E10E943F0260E086E20E94B301A8
:101DB00060E088E30E94B30160E08EE30E94B3011B
:101DC00060E088E1DF91CF911F910F91FF90EF903C
:101DD0000C94B3010F931F93CF93DF93CDB7DEB76E
:101DE000A1970FB6F894DEBF0FBECDBF8C016EE990
:101DF00072E0DCDA81110FC06AEC72E0C801D6DA59
:101E00008823A1F0CE01019610DCCE010196BBDA49
:101E1000CE01019602DCA1960FB6F894DEBF0FBE8C
:101E2000CDBFDF91CF911F910F9108956CEC72E0BF
:101E3000C801BCDA882309F481C084E090E0909363
:101E40008905809388050E94AB0280E090E0A4E3BE
:101E5000B3EC8093920590939305A0939405B0936F
:101E600095050E94AB0210928A0510928B05109284
:101E70008C0510928D050E94AB0210928E05109277
:101E80008F0510929005109291050E94AB0210925E
:101E900096051092970510929805109299050E9448
:101EA000AB0210929A0510929B0510929C0510921D
:101EB0009D050E94AB0210929E0510929F05109204
:101EC000A0051092A1051092A2051092A3051092F0
:101ED000A4051092A5051092A6051092A7051092D0
:101EE000A8051092A9051092AA051092AB051092B0
:101EF000AC051092AD051092AE051092AF05109290
:101F0000B0051092B1051092B2051092B30510926F
:101F1000B4051092B5051092B6051092B70510924F
:101F2000B8051092B90510928905109288058FECBA
:101F300092E01DDA8CE992E01ADA64CF62ED72E089
:101F4000C80134DA882399F08EEB95E012DE89EE31
:101F500096E0F7D98AEB95E090D984EE96E0C6D961
:101F600085E090E090938905809388054BCF88EDBC
:101F700092E0FDD919A281E388A3CE018096F7D91A
:101F80008CE992E0F4D947CF8EEB95E0F2CDAF9299
:101F9000BF92CF92DF92EF92FF920F931F93CF9356
:101FA000DF93EC01E091FB04F091FC0482E080837C
:101FB000E091F704F091F8041082E091F904F091B7
:101FC000FA0480E1808310920305E091FF04F09110
:101FD000000586E08083E091FD04F091FE0480819D
:101FE00080618083E091FD04F091FE04808188602F
:101FF0008083E091FD04F091FE04808180688083FD
:10200000E091FD04F091FE0480818F7D80836EE974
:1020100072E0CE018B579F4F96DAFE01349680E036
:1020200011928F5F8038E1F7FE01EC57FF4F10826D
:102030008AE090E00E94521A8C01FC011182108209
:10204000138212821582148288E090E09187808743
:1020500088E390E00E94521A29E030E0FC012193CD
:1020600031937F016F015C01F8E3AF0EB11C6EE9A3
:1020700072E0C601C2DA26E0C20ED11CAC14BD0467
:10208000B1F7F801F782E682C557DF4F198308835D
:10209000DF91CF911F910F91FF90EF90DF90CF9044
:1020A000BF90AF9008951F920F920FB60F92112418
:1020B0002F933F938F939F93AF93BF938091D304BC
:1020C0009091D404A091D504B091D6043091D2045B
:1020D00023E0230F2D3758F50196A11DB11D209344
:1020E000D2048093D3049093D404A093D504B093E6
:1020F000D6048091D7049091D804A091D904B091CE
:10210000DA040196A11DB11D8093D7049093D804E1
:10211000A093D904B093DA04BF91AF919F918F91AE
:102120003F912F910F900FBE0F901F90189526E8AA
:10213000230F0296A11DB11DD2CF1F920F920FB691
:102140000F9211240BB60F922F933F934F935F93EF
:102150006F937F938F939F93AF93BF93EF93FF936F
:10216000E0910E02F0910F021995FF91EF91BF914E
:10217000AF919F918F917F916F915F914F913F911F
:102180002F910F900BBE0F900FBE0F901F901895C0
:102190001F920F920FB60F9211240BB60F922F932E
:1021A0003F934F935F936F937F938F939F93AF93DF
:1021B000BF93EF93FF93E0910C02F0910D021995FC
:1021C000FF91EF91BF91AF919F918F917F916F910F
:1021D0005F914F913F912F910F900BBE0F900FBECB
:1021E0000F901F9018951F920F920FB60F92112407
:1021F0000BB60F922F933F934F935F936F937F9301
:102200008F939F93AF93BF93EF93FF93E09102025D
:10221000F09103021995FF91EF91BF91AF919F91BA
:102220008F917F916F915F914F913F912F910F907F
:102230000BBE0F900FBE0F901F9018951F920F921C
:102240000FB60F9211240BB60F922F933F934F931B
:102250005F936F937F938F939F93AF93BF93EF930E
:10226000FF93E0910002F09101021995FF91EF9127
:10227000BF91AF919F918F917F916F915F914F919E
:102280003F912F910F900BBE0F900FBE0F901F909C
:1022900018951F920F920FB60F9211240BB60F9242
:1022A0002F933F934F935F936F937F938F939F935E
:1022B000AF93BF93EF93FF93E0910A02F0910B026B
:1022C0001995FF91EF91BF91AF919F918F917F9160
:1022D0006F915F914F913F912F910F900BBE0F9097
:1022E0000FBE0F901F9018951F920F920FB60F926E
:1022F00011240BB60F922F933F934F935F936F93DD
:102300007F938F939F93AF93BF93EF93FF93E0914E
:102310000802F09109021995FF91EF91BF91AF91D9
:102320009F918F917F916F915F914F913F912F91ED
:102330000F900BBE0F900FBE0F901F9018951F921D
:102340000F920FB60F9211240BB60F922F933F935B
:102350004F935F936F937F938F939F93AF93BF93AD
:10236000EF93FF93E0910602F09107021995FF9118
:10237000EF91BF91AF919F918F917F916F915F91FD
:102380004F913F912F910F900BBE0F900FBE0F906A
:102390001F9018951F920F920FB60F9211240BB633
:1023A0000F922F933F934F935F936F937F938F93EE
:1023B0009F93AF93BF93EF93FF93E0910402F0914B
:1023C00005021995FF91EF91BF91AF919F918F9168
:1023D0007F916F915F914F913F912F910F900BBE25
:1023E0000F900FBE0F901F9018951F920F920FB66F
:1023F0000F9211240BB60F922F933F934F935F933D
:102400006F937F938F939F93AF93BF93EF93FF93BC
:102410008BEE94E00E944403FF91EF91BF91AF9146
:102420009F918F917F916F915F914F913F912F91EC
:102430000F900BBE0F900FBE0F901F9018951F921C
:102440000F920FB60F9211240BB60F922F938F930A
:102450009F93EF93FF93E091FB04F091FC04808144
:10246000E0910105F091020582FD1DC090818091EF
:1024700004058F5F8F7320910505821741F0E0916D
:102480000405F0E0E551FB4F958F80930405FF9123
:10249000EF919F918F912F910F900BBE0F900FBED8
:1024A0000F901F9018958081F2CFCF93DF93EC01AE
:1024B0008AE192E09983888382E08B831C861D8663
:1024C0001E861F86188A198A1A8A1B8A1C8A1D8AE8
:1024D0001E8A1F8A80E090E0A0E8BFE3888F998F72
:1024E000AA8FBB8F1C8E1D8E1E8E1F8E88A399A354
:1024F000AAA3BBA31CA21DA21EA21FA221E030E022
:102500003DA72CA72FEF2FA718A619A61AA61BA622
:102510006C834D8324E02E8325E02F831EA61CAA06
:102520001DAA1EAA1FAA18AE19AE1AAE1BAE1CAE6B
:102530001DAE1EAE1FAEFE01E05CFF4F8083918397
:10254000A283B3831A82188619861A861B86CE0147
:102550000E94DF0340E050E060E87FE3CE01DF91BE
:10256000CF9185CAEBEEF4E01382128288EE93E0FD
:10257000A0E0B0E084839583A683B78384E392E0F0
:102580009183808385EC90E09587848784EC90E04C
:102590009787868780EC90E0918B808B81EC90E030
:1025A000938B828B82EC90E0958B848B86EC90E011
:1025B000978B868B118E128E138E148E86E492E08A
:1025C0009093EF068093EE066EE972E083E797E062
:1025D00014D8E9EEF6E08EE892E09183808381E002
:1025E0008483E4EEF6E02CE732E0318320838483B9
:1025F00047E366E380EA96E058DF4DE36CE38CE561
:1026000096E053DF40E36EE288E196E04EDF4CE176
:102610006AE184ED95E049DFEEEBF5E08AE692E0D1
:10262000918380831482158288E592E09093BB05A4
:102630008093BA05E8E8F5E01282138214821582CD
:1026400016821782108611861286138614861586C6
:1026500016861786108A118A128A138A148A158A96
:10266000168A178A108E118E128E138E148E158E66
:10267000168E178E10A211A212A213A214A215A2D6
:1026800016A217A210A611A612A613A614A615A686
:1026900016A617A610AA11AA0895CF93DF93CDB757
:1026A000DEB72C970FB6F894DEBF0FBECDBF78947F
:1026B00084B5826084BD84B5816084BD85B5826047
:1026C00085BD85B5816085BD80916E0081608093F8
:1026D0006E00109281008091810082608093810061
:1026E0008091810081608093810080918000816071
:1026F000809380008091B10084608093B1008091CC
:10270000B00081608093B0008091910082608093DE
:102710009100809191008160809391008091900060
:102720008160809390008091A10082608093A100DD
:102730008091A10081608093A1008091A0008160C0
:102740008093A0008091210182608093210180917B
:10275000210181608093210180912001816080931B
:10276000200180917A00846080937A0080917A00C1
:10277000826080937A0080917A00816080937A00F1
:1027800080917A00806880937A001092C100AEEF49
:10279000B2E030E020E0F901EE58FD4F1491A901BC
:1027A000445D5D4FFA010491802F90E0880F991FDE
:1027B000FC01EE5EFD4F65917491FA014491442352
:1027C00091F0FC01E252FE4F8591949111967C9319
:1027D0006E9313969C938E93129714961C93149752
:1027E00015960C9315972F5F3F4F16962E34310593
:1027F00091F68AEE9EE090937C0780937B078EEEA5
:1028000096E0C5DB08EB12E01093C1050093C0050C
:102810008EEB95E0AED91093EC060093EB0689EEB3
:1028200096E00E94A1091093BD050093BC058AEBB8
:1028300095E00E943D091093E7060093E60684EEBA
:1028400096E00E94760985E090E090938905809358
:1028500088056FED72E0CE0101960E94FD0ACE015F
:1028600001960E94C309CE0101960E940D0B80E0E3
:1028700090E0A0E2B1E48093DB049093DC04A093A9
:10288000DD04B093DE041092DF041092E004109295
:10289000E1041092E2041092E3041092E404109216
:1028A000E5041092E6041092E7041092E8041092F6
:1028B000E9041092EA040E94BE0786E0F82E009117
:1028C000790710917A07F801848195811816190605
:1028D0000CF0B2C020813181F29EC001F39E900DB8
:1028E000112466817781680F791FCE0101960E94BD
:1028F000F50AF8018081918101969183808324817A
:10290000358121503109358324832085318528176D
:10291000390734F42F5F3F4F821B930B91838083E1
:1029200089819A8198878F838B819C819A878987F7
:102930008D819E819C878B871A8219821C821B82C3
:102940001E821D82CE0101960E940D0BCE010796BC
:1029500041DACE0107960E940D0B4091B0065091CE
:10296000B1066091B2067091B3068091AC06909169
:10297000AD06A091AE06B091AF06481759076A0799
:102980007B0709F046C08091DB049091DC04A091A4
:10299000DD04B091DE04B0588093DB049093DC0436
:1029A000A093DD04B093DE048091DF049091E004F5
:1029B000A091E104B091E204B0588093DF049093B9
:1029C000E004A093E104B093E2048091E3049091C9
:1029D000E404A091E504B091E604B0588093E304C8
:1029E0009093E404A093E504B093E6048091E70497
:1029F0009091E804A091E904B091EA04B058809362
:102A0000E7049093E804A093E904B093EA040E94D9
:102A1000BE0780EA96E00E94D6088CE596E00E9408
:102A2000D60888E196E00E94D60884ED95E00E94E1
:102A3000D6080E940B0D43CF6EE972E0CE010796D7
:102A40000E94FD0A83CF86E492E09093EF06809384
:102A5000EE0683E797E00C940D0BEF920F931F9314
:102A6000CF93DF93E80134E047FD34E1042E000CFE
:102A7000550B57FF03C0519541955109E32E022F85
:102A8000242FAE0107D0CE01DF91CF911F910F917E
:102A9000EF9008958F929F92AF92BF92CF92DF9264
:102AA000EF92FF920F931F93CF93DF9300D000D04C
:102AB00000D0CDB7DEB76A01F22EB02E102FFBE3A7
:102AC000AF2EA01608F41BE31F5F012F27E0AE0115
:102AD0004F5F5F4F57D1BC018981982F997091301A
:102AE00009F44EC09BE2E1FC04C09E2D9170E0FC15
:102AF00049C05E2D5071E82FE87083FF55C084E017
:102B0000911101C083E0EF2DE81B8F1508F0E0E084
:102B1000D6018E2F20E25523C9F1992329F0D60141
:102B20009C93C60101966C0196012D5F3F4FE2FE1A
:102B300033C08EE4D6018C9391E411969C93119747
:102B400012968C93D9018E2F90E281112AC0E20F48
:102B5000F32FF11D10828EEF9FEF29960FB6F89498
:102B6000DEBF0FBECDBFDF91CF911F910F91FF90C0
:102B7000EF90DF90CF90BF90AF909F908F9008958F
:102B80009DE2B7CF90E2B5CF2D9381508111FCCF5C
:102B9000CE0ED11CE0E0C1CF8EE6D6018C9391E63B
:102BA000CCCF9D938150D1CF482F447082FF3DC040
:102BB00084E0911101C083E08F1510F4EF2DE81B24
:102BC000D6018E2F20E2552309F1992329F0D60151
:102BD0009C93C60101966C0196012D5F3F4FE2FE6A
:102BE0001BC089E4D6018C938EE411968C931197C7
:102BF00086E412968C93D9018E2F90E2882309F4F3
:102C0000A6CF9D938150FACF2D9381508111FCCF97
:102C1000CE0ED11CE0E0D9CF89E6D6018C938EE6AA
:102C200011968C93119786E6E4CF9B0177FF02C043
:102C300030E020E0A1E0B0E0911102C0B0E0A0E0FF
:102C4000F9013196AE0FBF1F8B2C912CBB2009F4DC
:102C500061C05401EFEFAE1ABE0AAA0DBB1DFA16F1
:102C60001B0619F014F04F2D4A1B511188C0E3FCCC
:102C700059C07601A42FB0E2A1114FC0C40ED11CDF
:102C8000992309F45BC040E0D6011196F6019083C8
:102C90006D01552309F448C0012F060F9A81582F62
:102CA000507184FF03C0913309F4015010160CF0E9
:102CB00047C0093008F008E0EEE2FE2E5B01A01AE2
:102CC000B10885019194819491082F3F320729F42E
:102CD000D601FC92F60131966F016217730794F1E9
:102CE000021713077CF5DB01A21BB30BAA24A394E4
:102CF000B12CAC0EBD1EAA0DBB1D11968C9121509E
:102D00003109D601119628153905F4F0F6018083B2
:102D10006D01DBCFB12CA12CA0CFF701B1937F01C6
:102D2000A150AACF9111B0CFD601942F50E302C089
:102D30005D9391509111FCCFC40ED11C40E0ACCFFB
:102D400001E0BACF80E3DBCF6217730731F496332B
:102D500088F4953311F4552369F0F6018083FD0161
:102D6000842F90E2811108C0A40FB11D1C9290E045
:102D700080E0F3CE81E3F1CF91938150F3CF9111B5
:102D800083CF8ACF283008F027E03327DA01990F64
:102D9000311D87FD916000966105710539F432603F
:102DA0002E5F3D9330E32A95E1F708959F3F30F081
:102DB00080387105610509F03C5F3C5F3D939130BF
:102DC00008F08068911DDF93CF931F930F93FF92BC
:102DD000EF92192F987F9695E92F96959695E90F82
:102DE000FF27E25CFE4F99273327EE24FF24A7013B
:102DF000E70105900894079428F4360FE71EF81EA3
:102E0000491F511D660F771F881F991F0694A1F750
:102E10000590079428F4E70EF81E491F561FC11DA0
:102E2000770F881F991F661F0694A1F705900794D6
:102E300028F4F80E491F561FC71FD11D880F991F70
:102E4000661F771F0694A1F70590079420F4490F99
:102E5000561FC71FD81F990F661F771F881F06941C
:102E6000A9F784911095177041F0D695C79557959D
:102E70004795F794E7941A95C1F7E4EEF0E068946B
:102E80001590159135916591959105907FE2739517
:102E9000E118F10A430B560BC90BD009C0F7E10C3E
:102EA000F11E431F561FC91FD01D7EF4703311F44D
:102EB0008A95E6CFE894015030F0080F0AF4002715
:102EC000021708F4202F2395022F7A3328F079E394
:102ED0007D932A95E9F710C07D932A9589F606948B
:102EE00097956795379517951794E118F10A430B55
:102EF000560BC90BD00998F023957E9173957A33C0
:102F000008F070E37C932013B8F77E9170617D9395
:102F100030F0839571E37D9370E32A95E1F71124F6
:102F2000EF90FF900F911F91CF91DF91992787FD2F
:102F30009095089540D008F481E00895E89409C080
:102F400097FB3EF490958095709561957F4F8F4FDC
:102F50009F4F9923A9F0F92F96E9BB279395F695F2
:102F6000879577956795B795F111F8CFFAF4BB0F70
:102F700011F460FF1BC06F5F7F4F8F4F9F4F16C0D4
:102F8000882311F096E911C0772321F09EE8872F5E
:102F9000762F05C0662371F096E8862F70E060E01A
:102FA0002AF09A95660F771F881FDAF7880F969593
:102FB000879597F90895990F0008550FAA0BE0E837
:102FC000FEEF16161706E807F907C0F012161306EB
:102FD000E407F50798F0621B730B840B950B39F42B
:102FE0000A2661F0232B242B252B21F408950A2691
:102FF00009F4A140A6958FEF811D811D08950BD086
:1030000078C069D028F06ED018F0952309F05AC026
:103010005FC01124A2C07ED0A0F3959FD1F3950F7D
:1030200050E0551F629FF001729FBB27F00DB11D4C
:10303000639FAA27F00DB11DAA1F649F6627B00DDC
:10304000A11D661F829F2227B00DA11D621F739FC5
:10305000B00DA11D621F839FA00D611D221F749FD3
:103060003327A00D611D231F849F600D211D822F1A
:10307000762F6A2F11249F5750408AF0E1F0882361
:103080004AF0EE0FFF1FBB1F661F771F881F91506E
:103090005040A9F79E3F510570F014C05EC05F3FDD
:1030A000ECF3983EDCF3869577956795B795F795A1
:1030B000E7959F5FC1F7FE2B880F911D9695879529
:1030C00097F9089597F99F6780E870E060E00895A8
:1030D0009FEF80EC089500240A9416161706180630
:1030E0000906089500240A9412161306140605060C
:1030F0000895092E0394000C11F4882352F0BB0F9D
:1031000040F4BF2B11F460FF04C06F5F7F4F8F4FFF
:103110009F4F089557FD9058440F551F59F05F3F3A
:1031200071F04795880F97FB991F61F09F3F79F0E9
:1031300087950895121613061406551FF2CF46956B
:10314000F1DF08C0161617061806991FF1CF8695ED
:103150007105610508940895E894BB2766277727D1
:10316000CB0197F908955058BB27AA270ED0C1CF9D
:10317000B2DF30F0B7DF20F031F49F3F11F41EF4DE
:10318000A7CF0EF4E095E7FB9DCFE92FC3DF80F3D7
:10319000BA17620773078407950718F071F49EF554
:1031A000DBCF0EF4E0950B2EBA2FA02D0B01B90149
:1031B00090010C01CA01A0011124FF27591B99F0AD
:1031C000593F50F4503E68F11A16F040A22F232FB9
:1031D000342F4427585FF3CF469537952795A79509
:1031E000F0405395C9F77EF41F16BA0B620B730BB0
:1031F000840BBAF09150A1F0FF0FBB1F661F771F21
:10320000881FC2F70EC0BA0F621F731F841F48F4D5
:10321000879577956795B795F7959E3F08F0B3CF5B
:103220009395880F08F09927EE0F97958795089545
:103230000CD05FCF57DF40F04EDF30F021F45F3F1E
:1032400019F040CF511189CF43CF64DF98F3992310
:10325000C9F35523B1F3951B550BBB27AA2762175A
:103260007307840738F09F5F5F4F220F331F441F9F
:10327000AA1FA9F333D00E2E3AF0E0E830D09150D7
:103280005040E695001CCAF729D0FE2F27D0660FC4
:10329000771F881FBB1F261737074807AB07B0E803
:1032A00009F0BB0B802DBF01FF2793585F4F2AF019
:1032B0009E3F510568F006CF50CF5F3FECF3983E3C
:1032C000DCF3869577956795B795F7959F5FC9F776
:1032D000880F911D9695879597F90895E1E0660FFF
:1032E000771F881FBB1F621773078407BA0720F078
:1032F000621B730B840BBA0BEE1F88F7E0950895E1
:1033000004D06894B11129CF08950CDF88F09F573D
:1033100090F0B92F9927B751A0F0D1F0660F771F21
:10332000881F991F1AF0BA95C9F712C0B13081F001
:1033300013DFB1E0089510CF672F782F8827B85F8B
:1033400039F0B93FCCF3869577956795B395D9F762
:103350003EF490958095709561957F4F8F4F9F4F6C
:10336000089529DE08F48FEF089511F40EF4B0CE1D
:103370003EC0D8DED0F39923D9F3CEF39F57550B37
:1033800087FF43D00024A0E640EA9001805856957C
:10339000979528F4805C660F771F881F20F026170A
:1033A0003707480730F4621B730B840B202931293F
:1033B0004A2BA69517940794202531254A2758F7BC
:1033C000660F771F881F20F026173707480730F44D
:1033D000620B730B840B200D311D411DA09581F7ED
:1033E000B901842F9158880F9695879508959F3F2E
:1033F00031F0915020F4879577956795B795880FB0
:10340000911D9695879597F9089591505040660FB4
:10341000771F881FD2F70895052E97FB16F40094A6
:103420000FD057FD05D01CD007FC02D046F408C0D1
:1034300050954095309521953F4F4F4F5F4F0895E0
:1034400090958095709561957F4F8F4F9F4F089510
:10345000EE0FFF1F881F8BBF0790F691E02D199488
:10346000A1E21A2EAA1BBB1BFD010DC0AA1FBB1F88
:10347000EE1FFF1FA217B307E407F50720F0A21BFA
:10348000B30BE40BF50B661F771F881F991F1A9467
:1034900069F760957095809590959B01AC01BD0191
:1034A000CF0108950F931F93CF93DF93823091053F
:1034B00010F482E090E0E0917F07F091800730E027
:1034C00020E0B0E0A0E0309799F42115310509F42F
:1034D0004AC0281B390B24303105D8F58A819B81DD
:1034E0006115710589F1FB0193838283FE0111C08F
:1034F000408151810281138148175907E0F0481734
:10350000590799F4109761F012960C93129713963D
:103510001C933296CF01DF91CF911F910F910895A7
:1035200000937F0710938007F4CF2115310551F0E8
:103530004217530738F0A901DB019A01BD01DF01F1
:10354000F801C1CFEF01F9CF9093800780937F07F7
:10355000CDCFFE01E20FF31F8193919322503109E9
:1035600039832883D7CF20917D0730917E07232B85
:1035700041F4209112023091130230937E07209380
:103580007D0720911002309111022115310541F47F
:103590002DB73EB74091140250911502241B350BF4
:1035A000E0917D07F0917E07E217F307A0F42E1B50
:1035B0003F0B2817390778F0AC014E5F5F4F241797
:1035C000350748F04E0F5F1F50937E0740937D07ED
:1035D000819391939FCFF0E0E0E09CCFCF93DF9376
:1035E0000097E9F0FC01329713821282A0917F07C5
:1035F000B0918007ED0130E020E01097A1F4208128
:103600003181820F931F20917D0730917E0728170B
:10361000390709F061C0F0937E07E0937D07DF91E1
:10362000CF910895EA01CE17DF07E8F54A815B8163
:103630009E0141155105B1F7E901FB83EA834991E8
:103640005991C40FD51FEC17FD0761F4808191815A
:103650000296840F951FE901998388838281938163
:103660009B838A83F0E0E0E012968D919C91139702
:103670000097B9F52D913C911197CD010296820FDB
:10368000931F20917D0730917E072817390739F65F
:10369000309751F51092800710927F07B0937E0704
:1036A000A0937D07BCCFD383C28340815181840F17
:1036B000951FC817D90761F44E5F5F4F88819981C4
:1036C000480F591F518340838A819B819383828352
:1036D0002115310509F0B0CFF0938007E0937F0703
:1036E0009ECFFD01DC01C0CF13821282D7CF4F9253
:1036F0005F926F927F928F929F92AF92BF92CF9282
:10370000DF92EF92FF920F931F93CF93DF938C0181
:10371000009791F4CB01DF91CF911F910F91FF9012
:10372000EF90DF90CF90BF90AF909F908F907F9061
:103730006F905F904F90B6CEFC01E60FF71F9C0193
:1037400022503109E217F30708F4AAC0D901CD913C
:10375000DC911197C617D70718F1C530D10570F065
:10376000CE0104978617970748F0C61BD70B229700
:10377000C193D1936D937C93CF0130DFC801DF916A
:10378000CF911F910F91FF90EF90DF90CF90BF905E
:10379000AF909F908F907F906F905F904F90089523
:1037A0005B01AC1ABD0A4C018C0E9D1EA0917F07D7
:1037B000B0918007512C412CF12CE12C109731F560
:1037C00080917D0790917E078815990509F05CC06E
:1037D0004616570608F058C08091100290911102C9
:1037E000009741F48DB79EB7409114025091150295
:1037F000841B950BE817F90708F052C0F0937E0779
:10380000E0937D07F90171836083B8CF8D919C911E
:10381000119712966C90129713967C901397A81597
:10382000B90559F56C0142E0C40ED11CCA14DB0481
:1038300020F1AC014A195B09DA011296159780F064
:103840006282738251834083D9016D937C93E1142A
:10385000F10471F0D7011396FC93EE9312978ECF7B
:1038600022968C0F9D1FF90191838083F301EFCF86
:10387000F0938007E0937F0781CF4816590608F43C
:103880002C017D01D3019ACFCB010CDE7C01009786
:1038900039F0AE01B80107D0C801A0DE87016ECFB4
:1038A00010E000E06BCFFB01DC0102C001900D9243
:1038B00041505040D8F70895FB01DC018D910190F3
:1038C00080190110D9F3990B0895FB01DC010190D7
:1038D0000D920020E1F7089511E0C0E8D1E000E08A
:1038E00005C0802FFE01B4DD2196011DC138D1072E
:0A38F00080E00807B1F7F894FFCF5D
:1038FA00D002D002D002D002D002D002D002D0022E
:10390A00000081078000000000000D04DF0370053D
:10391A00AD055A0528050705D304B2045C04290439
:10392A00000000006603D102FE02B2032F030D035A
:10393A00210300000000C70FB509B609B509B5098A
:10394A00B509B509000000003D094E09B609B509D7
:10395A00B509B509B50900000000B90DC40FB609CB
:10396A005B095809540951090000000076098709C2
:10397A00B609B509B509B509B50900000000A109DC
:10398A00B209B609B509B509B509B5090D0A003C68
:10399A000069646C650072756E00686F6C64006A19
:1039AA006F6700686F6D696E6700616C61726D00A8
:1039BA007C002C004C0050003E003F002448006F61
:1039CA006B007265736574006572726F723A0053A8
:1039DA006F7572636552616262697420434E432057
:0E39EA004669726D7761726520312E310000E2
:00000001FF
